{
  "contractName": "TaskList",
  "abi": [
    {
      "inputs": [
        {
          "internalType": "string",
          "name": "_task",
          "type": "string"
        }
      ],
      "name": "addTask",
      "outputs": [],
      "stateMutability": "nonpayable",
      "type": "function"
    },
    {
      "inputs": [
        {
          "internalType": "uint256",
          "name": "_taskIndex",
          "type": "uint256"
        }
      ],
      "name": "getTask",
      "outputs": [
        {
          "components": [
            {
              "internalType": "string",
              "name": "taskName",
              "type": "string"
            },
            {
              "internalType": "bool",
              "name": "isDone",
              "type": "bool"
            }
          ],
          "internalType": "struct TaskList.Task",
          "name": "",
          "type": "tuple"
        }
      ],
      "stateMutability": "view",
      "type": "function",
      "constant": true
    },
    {
      "inputs": [
        {
          "internalType": "uint256",
          "name": "_taskIndex",
          "type": "uint256"
        },
        {
          "internalType": "bool",
          "name": "_status",
          "type": "bool"
        }
      ],
      "name": "updateStatus",
      "outputs": [],
      "stateMutability": "nonpayable",
      "type": "function"
    },
    {
      "inputs": [
        {
          "internalType": "uint256",
          "name": "_taskIndex",
          "type": "uint256"
        }
      ],
      "name": "deleteTask",
      "outputs": [],
      "stateMutability": "nonpayable",
      "type": "function"
    }
  ],
  "bytecode": "0x608060405234801561001057600080fd5b5061086e806100206000396000f3fe608060405234801561001057600080fd5b506004361061004c5760003560e01c80631d65e77e14610051578063387008c214610081578063560f31921461009d57806367238562146100b9575b600080fd5b61006b6004803603810190610066919061054a565b6100d5565b6040516100789190610668565b60405180910390f35b61009b600480360381019061009691906106b6565b610200565b005b6100b760048036038101906100b2919061054a565b61027d565b005b6100d360048036038101906100ce919061075b565b610305565b005b6100dd61040b565b60008060003373ffffffffffffffffffffffffffffffffffffffff1673ffffffffffffffffffffffffffffffffffffffff168152602001908152602001600020838154811061012f5761012e6107a8565b5b906000526020600020906002020190508060405180604001604052908160008201805461015b90610806565b80601f016020809104026020016040519081016040528092919081815260200182805461018790610806565b80156101d45780601f106101a9576101008083540402835291602001916101d4565b820191906000526020600020905b8154815290600101906020018083116101b757829003601f168201915b505050505081526020016001820160009054906101000a900460ff161515151581525050915050919050565b806000803373ffffffffffffffffffffffffffffffffffffffff1673ffffffffffffffffffffffffffffffffffffffff1681526020019081526020016000208381548110610251576102506107a8565b5b906000526020600020906002020160010160006101000a81548160ff0219169083151502179055505050565b6000803373ffffffffffffffffffffffffffffffffffffffff1673ffffffffffffffffffffffffffffffffffffffff16815260200190815260200160002081815481106102cd576102cc6107a8565b5b9060005260206000209060020201600080820160006102ec9190610427565b6001820160006101000a81549060ff0219169055505050565b6000803373ffffffffffffffffffffffffffffffffffffffff1673ffffffffffffffffffffffffffffffffffffffff168152602001908152602001600020604051806040016040528084848080601f016020809104026020016040519081016040528093929190818152602001838380828437600081840152601f19601f82011690508083019250505050505050815260200160001515815250908060018154018082558091505060019003906000526020600020906002020160009091909190915060008201518160000190805190602001906103e4929190610467565b5060208201518160010160006101000a81548160ff02191690831515021790555050505050565b6040518060400160405280606081526020016000151581525090565b50805461043390610806565b6000825580601f106104455750610464565b601f01602090049060005260206000209081019061046391906104ed565b5b50565b82805461047390610806565b90600052602060002090601f01602090048101928261049557600085556104dc565b82601f106104ae57805160ff19168380011785556104dc565b828001600101855582156104dc579182015b828111156104db5782518255916020019190600101906104c0565b5b5090506104e991906104ed565b5090565b5b808211156105065760008160009055506001016104ee565b5090565b600080fd5b600080fd5b6000819050919050565b61052781610514565b811461053257600080fd5b50565b6000813590506105448161051e565b92915050565b6000602082840312156105605761055f61050a565b5b600061056e84828501610535565b91505092915050565b600081519050919050565b600082825260208201905092915050565b60005b838110156105b1578082015181840152602081019050610596565b838111156105c0576000848401525b50505050565b6000601f19601f8301169050919050565b60006105e282610577565b6105ec8185610582565b93506105fc818560208601610593565b610605816105c6565b840191505092915050565b60008115159050919050565b61062581610610565b82525050565b6000604083016000830151848203600086015261064882826105d7565b915050602083015161065d602086018261061c565b508091505092915050565b60006020820190508181036000830152610682818461062b565b905092915050565b61069381610610565b811461069e57600080fd5b50565b6000813590506106b08161068a565b92915050565b600080604083850312156106cd576106cc61050a565b5b60006106db85828601610535565b92505060206106ec858286016106a1565b9150509250929050565b600080fd5b600080fd5b600080fd5b60008083601f84011261071b5761071a6106f6565b5b8235905067ffffffffffffffff811115610738576107376106fb565b5b60208301915083600182028301111561075457610753610700565b5b9250929050565b600080602083850312156107725761077161050a565b5b600083013567ffffffffffffffff8111156107905761078f61050f565b5b61079c85828601610705565b92509250509250929050565b7f4e487b7100000000000000000000000000000000000000000000000000000000600052603260045260246000fd5b7f4e487b7100000000000000000000000000000000000000000000000000000000600052602260045260246000fd5b6000600282049050600182168061081e57607f821691505b60208210811415610832576108316107d7565b5b5091905056fea264697066735822122092e15fc480b63d390d2eefbc67841e13fda2921eca85d5259614df30ddf8534264736f6c634300080b0033",
  "immutableReferences": {},
  "source": "// SPDX-License-Identifier: MIT\r\npragma solidity >=0.4.22 <0.9.0;\r\n\r\ncontract TaskList {\r\n    struct Task {\r\n        string taskName;\r\n        bool isDone;\r\n    }\r\n\r\n    mapping(address => Task[]) private Users;\r\n\r\n    // external ->  can be accessed only externally, uses less gas than public\r\n    // calldata -> data comes from external calls\r\n    function addTask(string calldata _task) external {\r\n        Users[msg.sender].push(Task({taskName: _task, isDone: false}));\r\n    }\r\n\r\n    // memory -> data comes from internal memory\r\n    // view -> function does not modify state of block\r\n    function getTask(uint256 _taskIndex) external view returns (Task memory) {\r\n        Task storage task = Users[msg.sender][_taskIndex];\r\n        return task;\r\n    }\r\n\r\n    function updateStatus(uint256 _taskIndex, bool _status) external {\r\n        Users[msg.sender][_taskIndex].isDone = _status;\r\n    }\r\n\r\n    function deleteTask(uint256 _taskIndex) external {\r\n        delete Users[msg.sender][_taskIndex];\r\n    }\r\n}\r\n",
  "sourcePath": "D:\\PJATK\\praca-dyplomowa\\new-blockchain-react\\masters-degree-app\\contracts\\contracts\\TaskList.sol",
  "compiler": {
    "name": "solc",
    "version": "0.8.11+commit.d7f03943.Emscripten.clang"
  },
  "schemaVersion": "3.4.4",
  "updatedAt": "2022-01-13T21:52:50.197Z",
  "networkType": "ethereum",
  "devdoc": {
    "kind": "dev",
    "methods": {},
    "version": 1
  },
  "userdoc": {
    "kind": "user",
    "methods": {},
    "version": 1
  }
}